{
  "contractName": "EquistartFactory",
  "abi": [
    {
      "inputs": [
        {
          "internalType": "string",
          "name": "name",
          "type": "string"
        },
        {
          "internalType": "string",
          "name": "symbol",
          "type": "string"
        },
        {
          "internalType": "uint256",
          "name": "initialSupply",
          "type": "uint256"
        }
      ],
      "name": "createProject",
      "outputs": [],
      "stateMutability": "nonpayable",
      "type": "function"
    },
    {
      "inputs": [],
      "name": "getAllDeployedProjects",
      "outputs": [
        {
          "components": [
            {
              "internalType": "uint256",
              "name": "id",
              "type": "uint256"
            },
            {
              "internalType": "string",
              "name": "projectName",
              "type": "string"
            },
            {
              "internalType": "string",
              "name": "symbol",
              "type": "string"
            },
            {
              "internalType": "uint256",
              "name": "initialSupply",
              "type": "uint256"
            },
            {
              "internalType": "address",
              "name": "contractAddress",
              "type": "address"
            }
          ],
          "internalType": "struct EquistartFactory.projectMeta[]",
          "name": "props",
          "type": "tuple[]"
        }
      ],
      "stateMutability": "view",
      "type": "function"
    },
    {
      "inputs": [
        {
          "internalType": "uint256",
          "name": "projectId",
          "type": "uint256"
        }
      ],
      "name": "getDeployedProject",
      "outputs": [
        {
          "components": [
            {
              "internalType": "uint256",
              "name": "id",
              "type": "uint256"
            },
            {
              "internalType": "string",
              "name": "projectName",
              "type": "string"
            },
            {
              "internalType": "string",
              "name": "symbol",
              "type": "string"
            },
            {
              "internalType": "uint256",
              "name": "initialSupply",
              "type": "uint256"
            },
            {
              "internalType": "address",
              "name": "contractAddress",
              "type": "address"
            }
          ],
          "internalType": "struct EquistartFactory.projectMeta",
          "name": "",
          "type": "tuple"
        }
      ],
      "stateMutability": "view",
      "type": "function"
    }
  ],
  "bytecode": "0x608060405234801561001057600080fd5b50d3801561001d57600080fd5b50d2801561002a57600080fd5b50613dc48061003a6000396000f3fe60806040523480156200001157600080fd5b50d380156200001f57600080fd5b50d280156200002d57600080fd5b5060043610620000625760003560e01c806323c554481462000067578063b9e86f621462000087578063f0e24a4014620000bd575b600080fd5b6200008560048036038101906200007f9190620007ad565b620000df565b005b620000a560048036038101906200009f919062000847565b620001e2565b604051620000b4919062000b63565b60405180910390f35b620000c7620003af565b604051620000d6919062000ae4565b60405180910390f35b6000806000815480929190620000f59062000d3b565b9190505590506000600160008381526020019081526020016000209050818160000181905550848160010190805190602001906200013592919062000615565b50838160020190805190602001906200015092919062000615565b50828160030181905550848484336040516200016c90620006a6565b6200017b949392919062000b08565b604051809103906000f08015801562000198573d6000803e3d6000fd5b508160040160006101000a81548173ffffffffffffffffffffffffffffffffffffffff021916908373ffffffffffffffffffffffffffffffffffffffff1602179055505050505050565b620001ec620006b4565b600160008381526020019081526020016000206040518060a001604052908160008201548152602001600182018054620002269062000ccf565b80601f0160208091040260200160405190810160405280929190818152602001828054620002549062000ccf565b8015620002a55780601f106200027957610100808354040283529160200191620002a5565b820191906000526020600020905b8154815290600101906020018083116200028757829003601f168201915b50505050508152602001600282018054620002c09062000ccf565b80601f0160208091040260200160405190810160405280929190818152602001828054620002ee9062000ccf565b80156200033f5780601f1062000313576101008083540402835291602001916200033f565b820191906000526020600020905b8154815290600101906020018083116200032157829003601f168201915b50505050508152602001600382015481526020016004820160009054906101000a900473ffffffffffffffffffffffffffffffffffffffff1673ffffffffffffffffffffffffffffffffffffffff1673ffffffffffffffffffffffffffffffffffffffff16815250509050919050565b606060005467ffffffffffffffff811115620003d057620003cf62000e16565b5b6040519080825280602002602001820160405280156200040d57816020015b620003f9620006b4565b815260200190600190039081620003ef5790505b50905060005b6000548110156200061157600160008281526020019081526020016000206040518060a001604052908160008201548152602001600182018054620004589062000ccf565b80601f0160208091040260200160405190810160405280929190818152602001828054620004869062000ccf565b8015620004d75780601f10620004ab57610100808354040283529160200191620004d7565b820191906000526020600020905b815481529060010190602001808311620004b957829003601f168201915b50505050508152602001600282018054620004f29062000ccf565b80601f0160208091040260200160405190810160405280929190818152602001828054620005209062000ccf565b8015620005715780601f10620005455761010080835404028352916020019162000571565b820191906000526020600020905b8154815290600101906020018083116200055357829003601f168201915b50505050508152602001600382015481526020016004820160009054906101000a900473ffffffffffffffffffffffffffffffffffffffff1673ffffffffffffffffffffffffffffffffffffffff1673ffffffffffffffffffffffffffffffffffffffff1681525050828281518110620005f057620005ef62000de7565b5b60200260200101819052508080620006089062000d3b565b91505062000413565b5090565b828054620006239062000ccf565b90600052602060002090601f01602090048101928262000647576000855562000693565b82601f106200066257805160ff191683800117855562000693565b8280016001018555821562000693579182015b828111156200069257825182559160200191906001019062000675565b5b509050620006a29190620006f9565b5090565b612f0a8062000e8583390190565b6040518060a0016040528060008152602001606081526020016060815260200160008152602001600073ffffffffffffffffffffffffffffffffffffffff1681525090565b5b8082111562000714576000816000905550600101620006fa565b5090565b60006200072f620007298462000bb0565b62000b87565b9050828152602081018484840111156200074e576200074d62000e4a565b5b6200075b84828562000c8a565b509392505050565b600082601f8301126200077b576200077a62000e45565b5b81356200078d84826020860162000718565b91505092915050565b600081359050620007a78162000e6a565b92915050565b600080600060608486031215620007c957620007c862000e54565b5b600084013567ffffffffffffffff811115620007ea57620007e962000e4f565b5b620007f88682870162000763565b935050602084013567ffffffffffffffff8111156200081c576200081b62000e4f565b5b6200082a8682870162000763565b92505060406200083d8682870162000796565b9150509250925092565b60006020828403121562000860576200085f62000e54565b5b6000620008708482850162000796565b91505092915050565b6000620008878383620009b4565b905092915050565b6200089a8162000c4c565b82525050565b620008ab8162000c4c565b82525050565b6000620008be8262000bf6565b620008ca818562000c19565b935083602082028501620008de8562000be6565b8060005b85811015620009205784840389528151620008fe858262000879565b94506200090b8362000c0c565b925060208a01995050600181019050620008e2565b50829750879550505050505092915050565b60006200093f8262000c01565b6200094b818562000c2a565b93506200095d81856020860162000c99565b620009688162000e59565b840191505092915050565b6000620009808262000c01565b6200098c818562000c3b565b93506200099e81856020860162000c99565b620009a98162000e59565b840191505092915050565b600060a083016000830151620009ce600086018262000ac2565b5060208301518482036020860152620009e8828262000932565b9150506040830151848203604086015262000a04828262000932565b915050606083015162000a1b606086018262000ac2565b50608083015162000a3060808601826200088f565b508091505092915050565b600060a08301600083015162000a55600086018262000ac2565b506020830151848203602086015262000a6f828262000932565b9150506040830151848203604086015262000a8b828262000932565b915050606083015162000aa2606086018262000ac2565b50608083015162000ab760808601826200088f565b508091505092915050565b62000acd8162000c80565b82525050565b62000ade8162000c80565b82525050565b6000602082019050818103600083015262000b008184620008b1565b905092915050565b6000608082019050818103600083015262000b24818762000973565b9050818103602083015262000b3a818662000973565b905062000b4b604083018562000ad3565b62000b5a6060830184620008a0565b95945050505050565b6000602082019050818103600083015262000b7f818462000a3b565b905092915050565b600062000b9362000ba6565b905062000ba1828262000d05565b919050565b6000604051905090565b600067ffffffffffffffff82111562000bce5762000bcd62000e16565b5b62000bd98262000e59565b9050602081019050919050565b6000819050602082019050919050565b600081519050919050565b600081519050919050565b6000602082019050919050565b600082825260208201905092915050565b600082825260208201905092915050565b600082825260208201905092915050565b600062000c598262000c60565b9050919050565b600073ffffffffffffffffffffffffffffffffffffffff82169050919050565b6000819050919050565b82818337600083830152505050565b60005b8381101562000cb957808201518184015260208101905062000c9c565b8381111562000cc9576000848401525b50505050565b6000600282049050600182168062000ce857607f821691505b6020821081141562000cff5762000cfe62000db8565b5b50919050565b62000d108262000e59565b810181811067ffffffffffffffff8211171562000d325762000d3162000e16565b5b80604052505050565b600062000d488262000c80565b91507fffffffffffffffffffffffffffffffffffffffffffffffffffffffffffffffff82141562000d7e5762000d7d62000d89565b5b600182019050919050565b7f4e487b7100000000000000000000000000000000000000000000000000000000600052601160045260246000fd5b7f4e487b7100000000000000000000000000000000000000000000000000000000600052602260045260246000fd5b7f4e487b7100000000000000000000000000000000000000000000000000000000600052603260045260246000fd5b7f4e487b7100000000000000000000000000000000000000000000000000000000600052604160045260246000fd5b600080fd5b600080fd5b600080fd5b600080fd5b6000601f19601f8301169050919050565b62000e758162000c80565b811462000e8157600080fd5b5056fe60806040523480156200001157600080fd5b50d380156200001f57600080fd5b50d280156200002d57600080fd5b5060405162002f0a38038062002f0a833981810160405281019062000053919062000391565b838381600390805190602001906200006d92919062000228565b5080600490805190602001906200008692919062000228565b5050506200009b8183620000a560201b60201c565b5050505062000795565b600073ffffffffffffffffffffffffffffffffffffffff168273ffffffffffffffffffffffffffffffffffffffff16141562000118576040517f08c379a00000000000000000000000000000000000000000000000000000000081526004016200010f9062000479565b60405180910390fd5b6200012c600083836200021e60201b60201c565b806002600082825462000140919062000528565b92505081905550806000808473ffffffffffffffffffffffffffffffffffffffff1673ffffffffffffffffffffffffffffffffffffffff168152602001908152602001600020600082825462000197919062000528565b925050819055508173ffffffffffffffffffffffffffffffffffffffff16600073ffffffffffffffffffffffffffffffffffffffff167fddf252ad1be2c89b69c2b068fc378daa952ba7f163c4a11628f55a4df523b3ef83604051620001fe91906200049b565b60405180910390a36200021a600083836200022360201b60201c565b5050565b505050565b505050565b82805462000236906200061a565b90600052602060002090601f0160209004810192826200025a5760008555620002a6565b82601f106200027557805160ff1916838001178555620002a6565b82800160010185558215620002a6579182015b82811115620002a557825182559160200191906001019062000288565b5b509050620002b59190620002b9565b5090565b5b80821115620002d4576000816000905550600101620002ba565b5090565b6000620002ef620002e984620004e1565b620004b8565b9050828152602081018484840111156200030e576200030d62000718565b5b6200031b848285620005e4565b509392505050565b600081519050620003348162000761565b6200033f8162000585565b905092915050565b600082601f8301126200035f576200035e62000713565b5b815162000371848260208601620002d8565b91505092915050565b6000815190506200038b816200077b565b92915050565b60008060008060808587031215620003ae57620003ad62000722565b5b600085015167ffffffffffffffff811115620003cf57620003ce6200071d565b5b620003dd8782880162000347565b945050602085015167ffffffffffffffff8111156200040157620004006200071d565b5b6200040f8782880162000347565b935050604062000422878288016200037a565b9250506060620004358782880162000323565b91505092959194509250565b600062000450601f8362000517565b91506200045d8262000738565b602082019050919050565b6200047381620005da565b82525050565b60006020820190508181036000830152620004948162000441565b9050919050565b6000602082019050620004b2600083018462000468565b92915050565b6000620004c4620004d7565b9050620004d2828262000650565b919050565b6000604051905090565b600067ffffffffffffffff821115620004ff57620004fe620006e4565b5b6200050a8262000727565b9050602081019050919050565b600082825260208201905092915050565b60006200053582620005da565b91506200054283620005da565b9250827fffffffffffffffffffffffffffffffffffffffffffffffffffffffffffffffff038211156200057a576200057962000686565b5b828201905092915050565b6000620005928262000599565b9050919050565b600073ffffffffffffffffffffffffffffffffffffffff82169050919050565b600074ffffffffffffffffffffffffffffffffffffffffff82169050919050565b6000819050919050565b60005b8381101562000604578082015181840152602081019050620005e7565b8381111562000614576000848401525b50505050565b600060028204905060018216806200063357607f821691505b602082108114156200064a5762000649620006b5565b5b50919050565b6200065b8262000727565b810181811067ffffffffffffffff821117156200067d576200067c620006e4565b5b80604052505050565b7f4e487b7100000000000000000000000000000000000000000000000000000000600052601160045260246000fd5b7f4e487b7100000000000000000000000000000000000000000000000000000000600052602260045260246000fd5b7f4e487b7100000000000000000000000000000000000000000000000000000000600052604160045260246000fd5b600080fd5b600080fd5b600080fd5b600080fd5b6000601f19601f8301169050919050565b7f45524332303a206d696e7420746f20746865207a65726f206164647265737300600082015250565b6200076c81620005b9565b81146200077857600080fd5b50565b6200078681620005da565b81146200079257600080fd5b50565b61276580620007a56000396000f3fe608060405234801561001057600080fd5b50d3801561001d57600080fd5b50d2801561002a57600080fd5b506004361061011a5760003560e01c806370a08231116100b1578063a9059cbb11610080578063a9059cbb146102dd578063cceb68f51461030d578063dd62ed3e1461032b578063fd187bfe1461035b5761011a565b806370a082311461024157806372fe1c031461027157806395d89b411461028f578063a457c2d7146102ad5761011a565b8063313ce567116100ed578063313ce567146101bb57806339509351146101d957806356c867f5146102095780635efa7ba5146102255761011a565b806306fdde031461011f578063095ea7b31461013d57806318160ddd1461016d57806323b872dd1461018b575b600080fd5b61012761038b565b6040516101349190611e54565b60405180910390f35b61015760048036038101906101529190611858565b61041d565b6040516101649190611e39565b60405180910390f35b610175610440565b6040516101829190611fb8565b60405180910390f35b6101a560048036038101906101a09190611805565b61044a565b6040516101b29190611e39565b60405180910390f35b6101c3610479565b6040516101d09190611fd3565b60405180910390f35b6101f360048036038101906101ee9190611858565b610482565b6040516102009190611e39565b60405180910390f35b610223600480360381019061021e9190611898565b6104b9565b005b61023f600480360381019061023a9190611941565b610646565b005b61025b60048036038101906102569190611798565b610790565b6040516102689190611fb8565b60405180910390f35b6102796107d8565b6040516102869190611e17565b60405180910390f35b61029761086d565b6040516102a49190611e54565b60405180910390f35b6102c760048036038101906102c29190611858565b6108ff565b6040516102d49190611e39565b60405180910390f35b6102f760048036038101906102f29190611858565b610976565b6040516103049190611e39565b60405180910390f35b610315610999565b6040516103229190611df5565b60405180910390f35b610345600480360381019061034091906117c5565b610c11565b6040516103529190611fb8565b60405180910390f35b61037560048036038101906103709190611914565b610c98565b6040516103829190611f96565b60405180910390f35b60606003805461039a90612222565b80601f01602080910402602001604051908101604052809291908181526020018280546103c690612222565b80156104135780601f106103e857610100808354040283529160200191610413565b820191906000526020600020905b8154815290600101906020018083116103f657829003601f168201915b5050505050905090565b600080610428610e83565b9050610435818585610e8b565b600191505092915050565b6000600254905090565b600080610455610e83565b9050610462858285611056565b61046d8585856110e2565b60019150509392505050565b60006012905090565b60008061048d610e83565b90506104ae81858561049f8589610c11565b6104a991906120e3565b610e8b565b600191505092915050565b6040518060600160405280603581526020016126fb6035913960146104dc610440565b6104e69190612139565b6104ef33610790565b118190610532576040517f08c379a00000000000000000000000000000000000000000000000000000000081526004016105299190611e54565b60405180910390fd5b5060006005600081548092919061054890612285565b919050559050600060066000838152602001908152602001600020905081816000018190555085816001019080519060200190610586929190611502565b50848482600201919061059a929190611588565b5062093a8063ffffffff16426105b091906120e3565b8160040181905550338160030160006101000a81548173ffffffffffffffffffffffffffffffffffffffff021916908373ffffffffffffffffffffffffffffffffffffffff1602179055503373ffffffffffffffffffffffffffffffffffffffff167fe7d91fba94441fd47fdbdbeb6ae04b96f865f0e87aab37919896be01d2fd726d60405160405180910390a2505050505050565b6040518060600160405280602c81526020016126cf602c91396014610669610440565b6106739190612139565b61067c33610790565b1181906106bf576040517f08c379a00000000000000000000000000000000000000000000000000000000081526004016106b69190611e54565b60405180910390fd5b5060006006600085815260200190815260200160002090506106e081611363565b8215610705578060050160008154809291906106fb90612285565b9190505550610720565b80600601600081548092919061071a90612285565b91905055505b600760003373ffffffffffffffffffffffffffffffffffffffff1673ffffffffffffffffffffffffffffffffffffffff1681526020019081526020016000208160000154908060018154018082558091505060019003906000526020600020016000909190919091505550505050565b60008060008373ffffffffffffffffffffffffffffffffffffffff1673ffffffffffffffffffffffffffffffffffffffff168152602001908152602001600020549050919050565b6060600760003373ffffffffffffffffffffffffffffffffffffffff1673ffffffffffffffffffffffffffffffffffffffff16815260200190815260200160002080548060200260200160405190810160405280929190818152602001828054801561086357602002820191906000526020600020905b81548152602001906001019080831161084f575b5050505050905090565b60606004805461087c90612222565b80601f01602080910402602001604051908101604052809291908181526020018280546108a890612222565b80156108f55780601f106108ca576101008083540402835291602001916108f5565b820191906000526020600020905b8154815290600101906020018083116108d857829003601f168201915b5050505050905090565b60008061090a610e83565b905060006109188286610c11565b90508381101561095d576040517f08c379a000000000000000000000000000000000000000000000000000000000815260040161095490611f76565b60405180910390fd5b61096a8286868403610e8b565b60019250505092915050565b600080610981610e83565b905061098e8185856110e2565b600191505092915050565b606060055467ffffffffffffffff8111156109b7576109b661238a565b5b6040519080825280602002602001820160405280156109f057816020015b6109dd61160e565b8152602001906001900390816109d55790505b50905060005b600554811015610c0d57600660008281526020019081526020016000206040518061010001604052908160008201548152602001600182018054610a3990612222565b80601f0160208091040260200160405190810160405280929190818152602001828054610a6590612222565b8015610ab25780601f10610a8757610100808354040283529160200191610ab2565b820191906000526020600020905b815481529060010190602001808311610a9557829003601f168201915b50505050508152602001600282018054610acb90612222565b80601f0160208091040260200160405190810160405280929190818152602001828054610af790612222565b8015610b445780601f10610b1957610100808354040283529160200191610b44565b820191906000526020600020905b815481529060010190602001808311610b2757829003601f168201915b505050505081526020016003820160009054906101000a900473ffffffffffffffffffffffffffffffffffffffff1673ffffffffffffffffffffffffffffffffffffffff1673ffffffffffffffffffffffffffffffffffffffff1681526020016004820154815260200160058201548152602001600682015481526020016007820160009054906101000a900460ff161515151581525050828281518110610bef57610bee61235b565b5b60200260200101819052508080610c0590612285565b9150506109f6565b5090565b6000600160008473ffffffffffffffffffffffffffffffffffffffff1673ffffffffffffffffffffffffffffffffffffffff16815260200190815260200160002060008373ffffffffffffffffffffffffffffffffffffffff1673ffffffffffffffffffffffffffffffffffffffff16815260200190815260200160002054905092915050565b610ca061160e565b600660008381526020019081526020016000206040518061010001604052908160008201548152602001600182018054610cd990612222565b80601f0160208091040260200160405190810160405280929190818152602001828054610d0590612222565b8015610d525780601f10610d2757610100808354040283529160200191610d52565b820191906000526020600020905b815481529060010190602001808311610d3557829003601f168201915b50505050508152602001600282018054610d6b90612222565b80601f0160208091040260200160405190810160405280929190818152602001828054610d9790612222565b8015610de45780601f10610db957610100808354040283529160200191610de4565b820191906000526020600020905b815481529060010190602001808311610dc757829003601f168201915b505050505081526020016003820160009054906101000a900473ffffffffffffffffffffffffffffffffffffffff1673ffffffffffffffffffffffffffffffffffffffff1673ffffffffffffffffffffffffffffffffffffffff1681526020016004820154815260200160058201548152602001600682015481526020016007820160009054906101000a900460ff1615151515815250509050919050565b600033905090565b600073ffffffffffffffffffffffffffffffffffffffff168373ffffffffffffffffffffffffffffffffffffffff161415610efb576040517f08c379a0000000000000000000000000000000000000000000000000000000008152600401610ef290611f56565b60405180910390fd5b600073ffffffffffffffffffffffffffffffffffffffff168273ffffffffffffffffffffffffffffffffffffffff161415610f6b576040517f08c379a0000000000000000000000000000000000000000000000000000000008152600401610f6290611eb6565b60405180910390fd5b80600160008573ffffffffffffffffffffffffffffffffffffffff1673ffffffffffffffffffffffffffffffffffffffff16815260200190815260200160002060008473ffffffffffffffffffffffffffffffffffffffff1673ffffffffffffffffffffffffffffffffffffffff168152602001908152602001600020819055508173ffffffffffffffffffffffffffffffffffffffff168373ffffffffffffffffffffffffffffffffffffffff167f8c5be1e5ebec7d5bd14f71427d1e84f3dd0314c0f7b2291e5b200ac8c7c3b925836040516110499190611fb8565b60405180910390a3505050565b60006110628484610c11565b90507fffffffffffffffffffffffffffffffffffffffffffffffffffffffffffffffff81146110dc57818110156110ce576040517f08c379a00000000000000000000000000000000000000000000000000000000081526004016110c590611ed6565b60405180910390fd5b6110db8484848403610e8b565b5b50505050565b600073ffffffffffffffffffffffffffffffffffffffff168373ffffffffffffffffffffffffffffffffffffffff161415611152576040517f08c379a000000000000000000000000000000000000000000000000000000000815260040161114990611f36565b60405180910390fd5b600073ffffffffffffffffffffffffffffffffffffffff168273ffffffffffffffffffffffffffffffffffffffff1614156111c2576040517f08c379a00000000000000000000000000000000000000000000000000000000081526004016111b990611e76565b60405180910390fd5b6111cd8383836114f8565b60008060008573ffffffffffffffffffffffffffffffffffffffff1673ffffffffffffffffffffffffffffffffffffffff16815260200190815260200160002054905081811015611253576040517f08c379a000000000000000000000000000000000000000000000000000000000815260040161124a90611ef6565b60405180910390fd5b8181036000808673ffffffffffffffffffffffffffffffffffffffff1673ffffffffffffffffffffffffffffffffffffffff16815260200190815260200160002081905550816000808573ffffffffffffffffffffffffffffffffffffffff1673ffffffffffffffffffffffffffffffffffffffff16815260200190815260200160002060008282546112e691906120e3565b925050819055508273ffffffffffffffffffffffffffffffffffffffff168473ffffffffffffffffffffffffffffffffffffffff167fddf252ad1be2c89b69c2b068fc378daa952ba7f163c4a11628f55a4df523b3ef8460405161134a9190611fb8565b60405180910390a361135d8484846114fd565b50505050565b8060070160009054906101000a900460ff1680611384575042816004015411155b156113e15760018160070160006101000a81548160ff0219169083151502179055506040517f08c379a00000000000000000000000000000000000000000000000000000000081526004016113d890611e96565b60405180910390fd5b6000600760003373ffffffffffffffffffffffffffffffffffffffff1673ffffffffffffffffffffffffffffffffffffffff16815260200190815260200160002080548060200260200160405190810160405280929190818152602001828054801561146c57602002820191906000526020600020905b815481526020019060010190808311611458575b5050505050905060005b81518110156114f3578181815181106114925761149161235b565b5b6020026020010151836000015414156114e0576040517f08c379a00000000000000000000000000000000000000000000000000000000081526004016114d790611f16565b60405180910390fd5b80806114eb90612285565b915050611476565b505050565b505050565b505050565b82805461150e90612222565b90600052602060002090601f0160209004810192826115305760008555611577565b82601f1061154957805160ff1916838001178555611577565b82800160010185558215611577579182015b8281111561157657825182559160200191906001019061155b565b5b509050611584919061166b565b5090565b82805461159490612222565b90600052602060002090601f0160209004810192826115b657600085556115fd565b82601f106115cf57803560ff19168380011785556115fd565b828001600101855582156115fd579182015b828111156115fc5782358255916020019190600101906115e1565b5b50905061160a919061166b565b5090565b604051806101000160405280600081526020016060815260200160608152602001600073ffffffffffffffffffffffffffffffffffffffff1681526020016000815260200160008152602001600081526020016000151581525090565b5b8082111561168457600081600090555060010161166c565b5090565b600061169b61169684612013565b611fee565b9050828152602081018484840111156116b7576116b66123c8565b5b6116c28482856121e0565b509392505050565b6000813590506116d981612689565b6116e28161216a565b905092915050565b6000813590506116f9816126a0565b92915050565b60008083601f840112611715576117146123be565b5b8235905067ffffffffffffffff811115611732576117316123b9565b5b60208301915083600182028301111561174e5761174d6123c3565b5b9250929050565b600082601f83011261176a576117696123be565b5b813561177a848260208601611688565b91505092915050565b600081359050611792816126b7565b92915050565b6000602082840312156117ae576117ad6123d2565b5b60006117bc848285016116ca565b91505092915050565b600080604083850312156117dc576117db6123d2565b5b60006117ea858286016116ca565b92505060206117fb858286016116ca565b9150509250929050565b60008060006060848603121561181e5761181d6123d2565b5b600061182c868287016116ca565b935050602061183d868287016116ca565b925050604061184e86828701611783565b9150509250925092565b6000806040838503121561186f5761186e6123d2565b5b600061187d858286016116ca565b925050602061188e85828601611783565b9150509250929050565b6000806000604084860312156118b1576118b06123d2565b5b600084013567ffffffffffffffff8111156118cf576118ce6123cd565b5b6118db86828701611755565b935050602084013567ffffffffffffffff8111156118fc576118fb6123cd565b5b611908868287016116ff565b92509250509250925092565b60006020828403121561192a576119296123d2565b5b600061193884828501611783565b91505092915050565b60008060408385031215611958576119576123d2565b5b600061196685828601611783565b9250506020611977858286016116ea565b9150509250929050565b600061198d8383611c5a565b905092915050565b60006119a18383611dc8565b60208301905092915050565b6119b68161216a565b82525050565b60006119c782612064565b6119d1818561209f565b9350836020820285016119e385612044565b8060005b85811015611a1f5784840389528151611a008582611981565b9450611a0b83612085565b925060208a019950506001810190506119e7565b50829750879550505050505092915050565b6000611a3c8261206f565b611a4681856120b0565b9350611a5183612054565b8060005b83811015611a82578151611a698882611995565b9750611a7483612092565b925050600181019050611a55565b5085935050505092915050565b611a988161217c565b82525050565b611aa78161217c565b82525050565b6000611ab88261207a565b611ac281856120c1565b9350611ad28185602086016121ef565b611adb816123d7565b840191505092915050565b6000611af18261207a565b611afb81856120d2565b9350611b0b8185602086016121ef565b611b14816123d7565b840191505092915050565b6000611b2c6023836120d2565b9150611b37826123e8565b604082019050919050565b6000611b4f6029836120d2565b9150611b5a82612437565b604082019050919050565b6000611b726022836120d2565b9150611b7d82612486565b604082019050919050565b6000611b95601d836120d2565b9150611ba0826124d5565b602082019050919050565b6000611bb86026836120d2565b9150611bc3826124fe565b604082019050919050565b6000611bdb6027836120d2565b9150611be68261254d565b604082019050919050565b6000611bfe6025836120d2565b9150611c098261259c565b604082019050919050565b6000611c216024836120d2565b9150611c2c826125eb565b604082019050919050565b6000611c446025836120d2565b9150611c4f8261263a565b604082019050919050565b600061010083016000830151611c736000860182611dc8565b5060208301518482036020860152611c8b8282611aad565b91505060408301518482036040860152611ca58282611aad565b9150506060830151611cba60608601826119ad565b506080830151611ccd6080860182611dc8565b5060a0830151611ce060a0860182611dc8565b5060c0830151611cf360c0860182611dc8565b5060e0830151611d0660e0860182611a8f565b508091505092915050565b600061010083016000830151611d2a6000860182611dc8565b5060208301518482036020860152611d428282611aad565b91505060408301518482036040860152611d5c8282611aad565b9150506060830151611d7160608601826119ad565b506080830151611d846080860182611dc8565b5060a0830151611d9760a0860182611dc8565b5060c0830151611daa60c0860182611dc8565b5060e0830151611dbd60e0860182611a8f565b508091505092915050565b611dd1816121c9565b82525050565b611de0816121c9565b82525050565b611def816121d3565b82525050565b60006020820190508181036000830152611e0f81846119bc565b905092915050565b60006020820190508181036000830152611e318184611a31565b905092915050565b6000602082019050611e4e6000830184611a9e565b92915050565b60006020820190508181036000830152611e6e8184611ae6565b905092915050565b60006020820190508181036000830152611e8f81611b1f565b9050919050565b60006020820190508181036000830152611eaf81611b42565b9050919050565b60006020820190508181036000830152611ecf81611b65565b9050919050565b60006020820190508181036000830152611eef81611b88565b9050919050565b60006020820190508181036000830152611f0f81611bab565b9050919050565b60006020820190508181036000830152611f2f81611bce565b9050919050565b60006020820190508181036000830152611f4f81611bf1565b9050919050565b60006020820190508181036000830152611f6f81611c14565b9050919050565b60006020820190508181036000830152611f8f81611c37565b9050919050565b60006020820190508181036000830152611fb08184611d11565b905092915050565b6000602082019050611fcd6000830184611dd7565b92915050565b6000602082019050611fe86000830184611de6565b92915050565b6000611ff8612009565b90506120048282612254565b919050565b6000604051905090565b600067ffffffffffffffff82111561202e5761202d61238a565b5b612037826123d7565b9050602081019050919050565b6000819050602082019050919050565b6000819050602082019050919050565b600081519050919050565b600081519050919050565b600081519050919050565b6000602082019050919050565b6000602082019050919050565b600082825260208201905092915050565b600082825260208201905092915050565b600082825260208201905092915050565b600082825260208201905092915050565b60006120ee826121c9565b91506120f9836121c9565b9250827fffffffffffffffffffffffffffffffffffffffffffffffffffffffffffffffff0382111561212e5761212d6122ce565b5b828201905092915050565b6000612144826121c9565b915061214f836121c9565b92508261215f5761215e6122fd565b5b828204905092915050565b600061217582612188565b9050919050565b60008115159050919050565b600073ffffffffffffffffffffffffffffffffffffffff82169050919050565b600074ffffffffffffffffffffffffffffffffffffffffff82169050919050565b6000819050919050565b600060ff82169050919050565b82818337600083830152505050565b60005b8381101561220d5780820151818401526020810190506121f2565b8381111561221c576000848401525b50505050565b6000600282049050600182168061223a57607f821691505b6020821081141561224e5761224d61232c565b5b50919050565b61225d826123d7565b810181811067ffffffffffffffff8211171561227c5761227b61238a565b5b80604052505050565b6000612290826121c9565b91507fffffffffffffffffffffffffffffffffffffffffffffffffffffffffffffffff8214156122c3576122c26122ce565b5b600182019050919050565b7f4e487b7100000000000000000000000000000000000000000000000000000000600052601160045260246000fd5b7f4e487b7100000000000000000000000000000000000000000000000000000000600052601260045260246000fd5b7f4e487b7100000000000000000000000000000000000000000000000000000000600052602260045260246000fd5b7f4e487b7100000000000000000000000000000000000000000000000000000000600052603260045260246000fd5b7f4e487b7100000000000000000000000000000000000000000000000000000000600052604160045260246000fd5b600080fd5b600080fd5b600080fd5b600080fd5b600080fd5b600080fd5b6000601f19601f8301169050919050565b7f45524332303a207472616e7366657220746f20746865207a65726f206164647260008201527f6573730000000000000000000000000000000000000000000000000000000000602082015250565b7f566f74696e6720506572696f642068617320706173736564206f6e207468697360008201527f2050726f706f73616c0000000000000000000000000000000000000000000000602082015250565b7f45524332303a20617070726f766520746f20746865207a65726f20616464726560008201527f7373000000000000000000000000000000000000000000000000000000000000602082015250565b7f45524332303a20696e73756666696369656e7420616c6c6f77616e6365000000600082015250565b7f45524332303a207472616e7366657220616d6f756e742065786365656473206260008201527f616c616e63650000000000000000000000000000000000000000000000000000602082015250565b7f596f75206861766520616c726561647920766f746564206f6e2074686973207060008201527f726f706f73616c00000000000000000000000000000000000000000000000000602082015250565b7f45524332303a207472616e736665722066726f6d20746865207a65726f20616460008201527f6472657373000000000000000000000000000000000000000000000000000000602082015250565b7f45524332303a20617070726f76652066726f6d20746865207a65726f2061646460008201527f7265737300000000000000000000000000000000000000000000000000000000602082015250565b7f45524332303a2064656372656173656420616c6c6f77616e63652062656c6f7760008201527f207a65726f000000000000000000000000000000000000000000000000000000602082015250565b612692816121a8565b811461269d57600080fd5b50565b6126a98161217c565b81146126b457600080fd5b50565b6126c0816121c9565b81146126cb57600080fd5b5056fe4f6e6c7920626f617264206d656d64626572207769746820746f6b656e203e2035252063616e20766f7434654f6e6c7920626f617264206d656d626572207769746820746f6b656e203e2035252063616e206372656174652070726f706f73616ca26474726f6e582212200cae4e47ff30f0bc07bb08d9c07c10ef861ffec92a34aa26a2acff6fe5dce6b364736f6c63430008060033a26474726f6e5822122070300432db7f95d5a105df70f0b50a41d0a26002689940d5ea25922b18e40fd564736f6c63430008060033",
  "source": "// SPDX-License-Identifier: MIT\npragma solidity ^0.8.6;\n\n//Check openzeppelin for learning more about input variables like Name, Token Amount, etc. \n//https://docs.openzeppelin.com/contracts/4.x/wizard\n\n// import \"@openzeppelin/contracts/token/ERC20/presets/ERC20PresetMinterPauser.sol\";\nimport \"./EquistartProject.sol\";\n\ncontract EquistartFactory {\n    \n\n    uint numOfProjects;\n\n    struct projectMeta{\n        uint256 id;\n        string projectName;\n        string symbol;\n        uint256 initialSupply;\n        address contractAddress;\n    }\n\n    // projectMeta[] public deployedProjects;\n    mapping(uint => projectMeta) private deployedProjects;\n    \n    function createProject(string memory name, string memory symbol, uint initialSupply) public {\n        uint projectId = numOfProjects++;\n        projectMeta storage project = deployedProjects[projectId];\n        project.id = projectId;\n        project.projectName = name;\n        project.symbol = symbol;\n        project.initialSupply = initialSupply;\n        project.contractAddress = address(new EquistartProject(name, symbol, initialSupply,  msg.sender));\n\n        // deployedProjects.push(newProject);\n    }\n    \n    function getAllDeployedProjects () public view returns (projectMeta[] memory props){\n        // return deployedProjects;\n        props = new projectMeta[](numOfProjects);\n        \n        for (uint256 index =0; index< numOfProjects; index++){\n            props[index] = deployedProjects[index];\n        }\n    }\n\n    function getDeployedProject(uint256 projectId) public view returns (projectMeta memory){\n        return deployedProjects[projectId];\n    }\n}\n",
  "sourcePath": "/Users/yaksheshgupta/Desktop/Tron_Hackathon/contracts/EquistartFactory.sol",
  "compiler": {
    "name": "solc",
    "version": "0.8.6+commit.0e36fba0.mod.Emscripten.clang"
  },
  "schemaVersion": "2.0.1",
  "updatedAt": "2022-07-21T10:10:40.202Z"
}